:100000000C9463000C948B000C948B000C948B006C
:100010000C948B000C948B000C948B000C948B0034
:100020000C948B000C948B000C948B000C948B0024
:100030000C948B000C948B000C948B000C948B0014
:100040000C940A030C948B000C94D8020C94B2020A
:100050000C948B000C948B000C948B000C948B00F4
:100060000C948B000C948B000000000024002700EF
:100070002A0000000000250028002B0000000000DE
:1000800023002600290004040404040404040202DA
:100090000202020203030303030301020408102007
:1000A0004080010204081020010204081020000012
:1000B0000008000201000003040700000000000027
:1000C00000005403FB0611241FBECFEFD8E0DEBFB3
:1000D000CDBF11E0A0E0B1E0E4ECF5E102C0059095
:1000E0000D92A232B107D9F722E0A2E2B1E001C03D
:1000F0001D92A435B207E1F710E0C2E6D0E004C0DB
:100100002197FE010E949D09C136D107C9F70E94BF
:10011000E2030C94D50A0C940000CF92DF92EF9288
:10012000FF920F931F93CF93DF936C017A018B01A2
:10013000C0E0D0E0CE15DF0589F0D8016D918D01CA
:10014000D601ED91FC910190F081E02DC601099559
:10015000892B11F47E0102C02196ECCFC701DF91FB
:10016000CF911F910F91FF90EF90DF90CF90089566
:10017000089580E090E00895FC01538D448D252F73
:1001800030E0842F90E0821B930B541710F0CF9631
:10019000089501970895FC01918D828D981761F063
:1001A000828DDF01A80FB11D5D968C91928D9F5FAE
:1001B0009F73928F90E008958FEF9FEF0895FC0159
:1001C000918D828D981731F0828DE80FF11D858D0C
:1001D00090E008958FEF9FEF0895FC01918D228D9F
:1001E000892F90E0805C9F4F821B91098F73992724
:1001F00008958FE391E00E94ED0021E0892B09F43E
:1002000020E0822F0895FC01848DDF01A80FB11D2D
:10021000A35ABF4F2C91848D90E001968F7399273C
:10022000848FA689B7892C93A089B1898C91806429
:100230008C93938D848D981306C00288F389E02DEA
:1002400080818F7D80830895EF92FF920F931F939B
:10025000CF93DF93EC0181E0888F9B8D8C8D981379
:1002600005C0E889F989808185FD24C0F62E0B8DB3
:1002700010E00F5F1F4F0F731127E02E8C8DE812D7
:100280000CC00FB607FCFACFE889F989808185FF99
:10029000F5CFCE010E940301F1CF8B8DFE01E80F57
:1002A000F11DE35AFF4FF0820B8FEA89FB898081B1
:1002B000806207C0EE89FF896083E889F9898081BF
:1002C0008064808381E090E0DF91CF911F910F9156
:1002D000FF90EF900895CF93DF93EC01888D8823F2
:1002E000C9F0EA89FB89808185FD05C0A889B989A3
:1002F0008C9186FD0FC00FB607FCF5CF808185FF7E
:10030000F2CFA889B9898C9185FFEDCFCE010E94EB
:100310000301E7CFDF91CF91089580E090E0892B32
:1003200029F00E94F90081110C9400000895833097
:1003300081F028F4813099F08230A1F0089587305F
:10034000A9F08830B9F08430D1F4809180008F7D9D
:1003500003C0809180008F7780938000089584B5DA
:100360008F7702C084B58F7D84BD08958091B000E1
:100370008F7703C08091B0008F7D8093B000089587
:100380001F93CF93DF93282F30E0F901E255FF4F01
:100390008491F901E656FF4FD491F901EA57FF4FD6
:1003A000C491CC23C9F0162F81110E949701EC2F24
:1003B000F0E0EE0FFF1FEE58FF4FA591B4918FB7FD
:1003C000F894111105C09C91ED2FE095E92302C02E
:1003D000EC91ED2BEC938FBFDF91CF911F9108959E
:1003E000CF93DF9390E0FC01E656FF4F2491FC0190
:1003F000EA57FF4F8491882361F190E0880F991F9D
:10040000FC01E859FF4FC591D491FC01EE58FF4F14
:10041000A591B491611109C09FB7F8948881209586
:1004200082238883EC912E230BC0623061F49FB746
:10043000F8943881822F809583238883EC912E2B2A
:100440002C939FBF06C08FB7F894E8812E2B28838A
:100450008FBFDF91CF9108951F93CF93DF93182F14
:10046000EB0161E00E94F001209711F460E004C00C
:10047000CF3FD10539F461E0812FDF91CF911F91FA
:100480000C94C001E12FF0E0E255FF4FE491E3301E
:10049000F9F048F4E130B9F0E230A1F584B58062BA
:1004A00084BDC8BD34C0E730E9F0E83019F1E4306C
:1004B00049F580918000806280938000D0938B000A
:1004C000C0938A0024C084B5806884BDC7BD1FC0A6
:1004D00080918000806880938000D0938900C093D1
:1004E000880015C08091B00080688093B000C093F0
:1004F000B3000DC08091B00080628093B000C093C3
:10050000B40005C0C038D1050CF0B5CFAFCFDF9136
:10051000CF911F9108953FB7F89480912301909156
:100520002401A0912501B091260126B5A89B05C004
:100530002F3F19F00196A11DB11D3FBFBA2FA92F62
:10054000982F8827820F911DA11DB11DBC01CD01DF
:1005500042E0660F771F881F991F4A95D1F70895CB
:100560000E94D00A1F920F920FB60F9211242F9360
:100570003F934F935F936F937F938F939F93AF932B
:10058000BF93EF93FF938FE391E00E940301FF91EC
:10059000EF91BF91AF919F918F917F916F915F91FB
:1005A0004F913F912F910F900FBE0F901F90189574
:1005B0001F920F920FB60F9211242F938F939F9338
:1005C000EF93FF93E0914F01F09150018081E09112
:1005D0005501F091560182FD12C090818091580121
:1005E0008F5F8F7320915901821751F0E09158016C
:1005F000F0E0E15CFE4F958F8093580101C080814F
:10060000FF91EF919F918F912F910F900FBE0F90BF
:100610001F9018951F920F920FB60F9211242F93CF
:100620003F938F939F93AF93BF93809127019091B6
:100630002801A0912901B0912A013091220123E0E3
:10064000230F2D3720F40196A11DB11D05C026E80A
:10065000230F0296A11DB11D209322018093270133
:1006600090932801A0932901B0932A01809123013E
:1006700090912401A0912501B09126010196A11D20
:10068000B11D8093230190932401A0932501B09381
:100690002601BF91AF919F918F913F912F910F9024
:1006A0000FBE0F901F9018951092420110924101B9
:1006B00088EE93E0A0E0B0E0809343019093440182
:1006C000A0934501B093460184E191E090934001ED
:1006D00080933F0185EC90E090934C0180934B0117
:1006E00084EC90E090934E0180934D0180EC90E07B
:1006F0009093500180934F0181EC90E090935201D0
:100700008093510182EC90E09093540180935301C7
:1007100086EC90E090935601809355011092580119
:100720001092590110925A0110925B0188EC80934B
:100730003F0280E293E00E94A309909347028093D6
:100740004602009711F410923F021092400210925C
:1007500041021092420210924302109244021092FF
:10076000450240E050E060EC7FE740934802509340
:10077000490260934A0270934B0240934C0250939B
:100780004D0260934E0270934F0220913F02FC0194
:1007900080E0821731F011921192119211928F5FC5
:1007A000F8CF83E18093DD011092DE011092DF012A
:1007B0001092DC01ECE2F2E080E081938F5F833104
:1007C000E1F70895CF93DF9300D000D01F92CDB70B
:1007D000DEB7789484B5826084BD84B5816084BDC1
:1007E00085B5826085BD85B5816085BD80916E00CF
:1007F000816080936E001092810080918100826000
:10080000809381008091810081608093810080913C
:1008100080008160809380008091B100846080932B
:10082000B1008091B00081608093B00080917A0027
:10083000846080937A0080917A00826080937A004D
:1008400080917A00816080937A0080917A0080683C
:1008500080937A001092C10061E08BE00E94F00169
:1008600060E08CE00E94F00161E089E00E94F0010C
:1008700060E08AE00E94F00161E082E00E94F00105
:1008800061E08EE00E94F001E0914F01F091500193
:1008900082E08083E0914B01F0914C011082E09165
:1008A0004D01F0914E018FEC808310925701E09141
:1008B0005301F091540186E08083E0915101F09161
:1008C0005201808180618083E0915101F091520159
:1008D000808188608083E0915101F0915201808194
:1008E00080688083E0915101F091520180818F7D79
:1008F000808325E0422E512C612C712C80E4809362
:100900007C0080917A00806480937A0080917A00E4
:1009100086FDFCCF60917800809179002091DF0105
:1009200011E0120F1093DF0144E0249F9001112485
:10093000D901A052BE4F7D0170E0782B072E000C2C
:10094000880B990B0E947B08F70160837183828377
:1009500093839091DD01191710F01092DF018091BF
:10096000DE01891718F48F5F8093DE011092DC019D
:100970001091DE01112309F489C0912CE12EF12C94
:100980001701F1E02F1A3108892D90E082159305A7
:10099000E4F501E041E04B835701A81AB90A202F82
:1009A00030E02A153B0574F5A901455D5D4F6A01EC
:1009B000DA01BC91B983F901E45DFD4FFD83EC835D
:1009C000808024E0B29FF0011124E052FE4F44E009
:1009D000849ED0011124A052BE4F2D913D914D9186
:1009E0005C9160817181828193810E942B0918162C
:1009F0003CF4D6018C922981EC81FD8120831B82FD
:100A00000F5FCDCF5B815523B9F081E08093DC018E
:100A1000812F869510FF12C0E82FF0E0E45DFD4FB6
:100A2000E08184E0E89FF0011124E052FE4F6081F4
:100A30007181828193812EC09394A6CF90E08452DD
:100A40009E4FFC01E05BFF4FA081E4E0AE9FD00130
:100A50001124A052BE4FFC01E15BFF4FE08124E076
:100A6000E29FF0011124E052FE4F2081318142814A
:100A700053816D917D918D919C910E94600720E042
:100A800030E040E05FE30E94300904C060E070E0C5
:100A900080EC9FE70E9443089B01AC01AFEFB0E000
:100AA0000E942307A30192010E94040762E370E001
:100AB000621B730B77FF02C060E070E0072E000C32
:100AC000880B990B0E947B086B017C010091460208
:100AD000109147020115110509F48CC08091410263
:100AE000580144E0849FA00CB11C1124D5012D9124
:100AF0003D914D915C9160914202709143028091D1
:100B00004402909145020E945F07609342027093F5
:100B100043028093440290934502F501C082D18242
:100B2000E282F382B0904102F80124E0B29EE00D2F
:100B3000F11D112420813181428153816091420253
:100B40007091430280914402909145020E94600797
:100B50006093420270934302809344029093450253
:100B600081E08B0D80934102A0903F028A1102C068
:100B700010924102B0904002B11009C0C0924C02E4
:100B8000D0924D02E0924E02F0924F020EC02091A0
:100B900048023091490240914A0250914B02C701EC
:100BA000B6010E94CC0787FF09C0C0924802D092CC
:100BB0004902E0924A02F0924B0217C020914C0287
:100BC00030914D0240914E0250914F02C701B60143
:100BD0000E942B0918160CF00AC1C0924C02D09248
:100BE0004D02E0924E02F0924F02BA1418F4B39400
:100BF000B0924002B0904002BB2009F1A12CC12C60
:100C0000D12C7601AB1471F0D8012D913D914D910D
:100C10005D918D01C701B6010E9460076B017C01E7
:100C2000A394F0CF6A2D70E080E090E00E947B08F2
:100C30009B01AC01C701B6010E94D10704C060E06E
:100C400070E080EC9FE70E9443087093010160937D
:100C5000000148E051E05D834C830BE311E04BE27F
:100C600051E05A83498333243394AC81BD81129679
:100C70002D913C9113973327F901E255FF4F849151
:100C8000F901E656FF4FC490F901EA57FF4FB490BF
:100C9000BB2009F486C081110E949701EB2DF0E082
:100CA000EE0FFF1FE458FF4FA591B491EC91CE22B7
:100CB00009F477C0D8018C91882309F452C080913F
:100CC0002F0190913001A0913101B09132014091FA
:100CD0002B0150912C0160912D0170912E01841BEC
:100CE000950BA60BB70B86399105A105B10550F5FB
:100CF00061E082E00E94C0010E948B026B017C01D6
:100D00008AEF882E912CA12CB12C0E948B02DC0141
:100D1000CB018C199D09AE09BF09883E9340A105FE
:100D2000B10558F0F1E08F1A9108A108B10828EE3A
:100D3000C20E23E0D21EE11CF11C81149104A10417
:100D4000B10419F760E082E00E94C00160910001E7
:100D500070910101AC81BD818C910E942C02F8013F
:100D600010826091000170910101AC81BD818C9174
:100D70000E942C024C815D814C5F5F4F5D834C83F0
:100D80000F5F1F4F49815A814C5F5F4F5A834983E0
:100D90004C815D814051514009F067CF0E948D0127
:100DA000ADCDF80180818111E5CF80910001909156
:100DB000010118161906F4F62FB7F894809127014F
:100DC00090912801A0912901B0912A012FBFE981BA
:100DD000FA8180839183A283B3836FEF70E0AC814B
:100DE000BD818C910E942C02F8013082C3CFBA14CD
:100DF00008F4FDCE03CF8091460290914702009700
:100E000011F00C94380A0895052E97FB1EF40094F7
:100E10000E941B0757FD07D00E942E0707FC03D036
:100E20004EF40C941B0750954095309521953F4FFB
:100E30004F4F5F4F089590958095709561957F4FC6
:100E40008F4F9F4F08950E945007A59F900DB49F0C
:100E5000900DA49F800D911D11240895A1E21A2EDA
:100E6000AA1BBB1BFD010DC0AA1FBB1FEE1FFF1F4E
:100E7000A217B307E407F50720F0A21BB30BE40B9E
:100E8000F50B661F771F881F991F1A9469F76095E5
:100E90007095809590959B01AC01BD01CF0108959F
:100EA000A29FB001B39FC001A39F700D811D1124AB
:100EB000911DB29F700D811D1124911D08955058F0
:100EC000BB27AA270E9477070C94F1080E94E30829
:100ED00038F00E94EA0820F039F49F3F19F426F414
:100EE0000C94E0080EF4E095E7FB0C94DA08E92F87
:100EF0000E94020958F3BA1762077307840795071F
:100F000020F079F4A6F50C9424090EF4E0950B2E4C
:100F1000BA2FA02D0B01B90190010C01CA01A0014B
:100F20001124FF27591B99F0593F50F4503E68F1A6
:100F30001A16F040A22F232F342F4427585FF3CFE7
:100F4000469537952795A795F0405395C9F77EF4B8
:100F50001F16BA0B620B730B840BBAF09150A1F001
:100F6000FF0FBB1F661F771F881FC2F70EC0BA0F87
:100F7000621F731F841F48F4879577956795B7950F
:100F8000F7959E3F08F0B0CF9395880F08F099270A
:100F9000EE0F9795879508950E94B60808F481E0B2
:100FA00008950E94E5070C94F1080E94EA0858F0A1
:100FB0000E94E30840F029F45F3F29F00C94DA081E
:100FC00051110C9425090C94E0080E94020968F361
:100FD0009923B1F3552391F3951B550BBB27AA27F2
:100FE00062177307840738F09F5F5F4F220F331F2C
:100FF000441FAA1FA9F335D00E2E3AF0E0E832D0F4
:1010000091505040E695001CCAF72BD0FE2F29D0F6
:10101000660F771F881FBB1F261737074807AB07C8
:10102000B0E809F0BB0B802DBF01FF2793585F4F3D
:101030003AF09E3F510578F00C94DA080C9425099B
:101040005F3FE4F3983ED4F3869577956795B7951F
:10105000F7959F5FC9F7880F911D9695879597F92A
:101060000895E1E0660F771F881FBB1F62177307A3
:101070008407BA0720F0621B730B840BBA0BEE1FB8
:1010800088F7E09508950E944A086894B1110C947D
:10109000250908950E940A0988F09F5798F0B92FF2
:1010A0009927B751B0F0E1F0660F771F881F991F9D
:1010B0001AF0BA95C9F714C0B13091F00E94240912
:1010C000B1E008950C942409672F782F8827B85F22
:1010D00039F0B93FCCF3869577956795B395D9F7F5
:1010E0003EF490958095709561957F4F8F4F9F4FFF
:1010F0000895E89409C097FB3EF49095809570950B
:1011000061957F4F8F4F9F4F9923A9F0F92F96E953
:10111000BB279395F695879577956795B795F111C8
:10112000F8CFFAF4BB0F11F460FF1BC06F5F7F4F65
:101130008F4F9F4F16C0882311F096E911C0772377
:1011400021F09EE8872F762F05C0662371F096E880
:10115000862F70E060E02AF09A95660F771F881F4F
:10116000DAF7880F9695879597F90895990F0008F3
:10117000550FAA0BE0E8FEEF16161706E807F90769
:10118000C0F012161306E407F50798F0621B730B04
:10119000840B950B39F40A2661F0232B242B252B85
:1011A00021F408950A2609F4A140A6958FEF811D28
:1011B000811D089597F99F6780E870E060E00895C9
:1011C0009FEF80EC089500240A941616170618065F
:1011D0000906089500240A9412161306140605063B
:1011E0000895092E0394000C11F4882352F0BB0FCC
:1011F00040F4BF2B11F460FF04C06F5F7F4F8F4F2F
:101200009F4F089557FD9058440F551F59F05F3F69
:1012100071F04795880F97FB991F61F09F3F79F018
:1012200087950895121613061406551FF2CF46959A
:10123000F1DF08C0161617061806991FF1CF86951C
:101240007105610508940895E894BB276627772700
:10125000CB0197F908950E94B60808F48FEF08951E
:101260000E9443090C94F1080E94E30838F00E94A0
:10127000EA0820F0952311F00C94DA080C94E008A9
:1012800011240C9425090E94020970F3959FC1F363
:10129000950F50E0551F629FF001729FBB27F00D24
:1012A000B11D639FAA27F00DB11DAA1F649F662779
:1012B000B00DA11D661F829F2227B00DA11D621FC8
:1012C000739FB00DA11D621F839FA00D611D221F82
:1012D000749F3327A00D611D231F849F600D211D66
:1012E000822F762F6A2F11249F5750409AF0F1F0E9
:1012F00088234AF0EE0FFF1FBB1F661F771F881F52
:1013000091505040A9F79E3F510580F00C94DA08A7
:101310000C9425095F3FE4F3983ED4F386957795C6
:101320006795B795F795E7959F5FC1F7FE2B880FF7
:10133000911D9695879597F90895EE0FFF1F0590DB
:10134000F491E02D0994CF93DF938230910510F44E
:1013500082E090E0E0915202F091530220E030E010
:10136000C0E0D0E0309711F1408151814817590712
:10137000C0F04817590761F482819381209719F0D2
:101380009B838A832BC0909353028093520226C082
:101390002115310519F04217530718F49A01BE01BF
:1013A000DF01EF010280F381E02DDCCF2115310553
:1013B00009F1281B390B2430310590F412968D91D8
:1013C0009C9113976115710521F0FB019383828332
:1013D00004C09093530280935202FD01329644C0A0
:1013E000FD01E20FF31F81939193225031092D9358
:1013F0003C933AC02091500230915102232B41F48A
:101400002091040130910501309351022093500244
:1014100020910201309103012115310541F42DB7CE
:101420003EB74091060150910701241B350BE09116
:101430005002F0915102E217F307A0F42E1B3F0B6C
:101440002817390778F0AC014E5F5F4F2417350736
:1014500048F04E0F5F1F509351024093500281930A
:10146000919302C0E0E0F0E0CF01DF91CF910895C9
:101470000F931F93CF93DF93009709F48CC0FC0167
:101480003297138212820091520210915302011579
:10149000110581F420813181820F931F2091500228
:1014A000309151022817390779F5F0935102E093F2
:1014B000500271C0D80140E050E0AE17BF0750F4B1
:1014C00012962D913C911397AD012115310509F12B
:1014D000D901F3CF9D01DA013383228360817181C9
:1014E000860F971F8217930769F4EC0128813981D1
:1014F000260F371F2E5F3F4F318320838A819B81C8
:1015000093838283452B29F4F0935302E093520294
:1015100042C01396FC93EE931297ED0149915991B5
:101520009E01240F351FE217F30771F4808191812A
:10153000840F951F029611969C938E9382819381BE
:1015400013969C938E931297E0E0F0E0D8011296E8
:101550008D919C911397009719F0F8018C01F6CFAB
:101560008D919C9198012E5F3F4F820F931F209188
:101570005002309151022817390769F4309729F445
:10158000109253021092520202C0138212821093E0
:10159000510200935002DF91CF911F910F91089556
:1015A00081E090E0F8940C94D50A10E0C2E6D0E017
:1015B00004C0FE010E949D092196C336D107C9F7D8
:0415C000F894FFCFCD
:1015C4000A000000540280000B000C0009000A000D
:1015D4000000000024018D00BC006B01ED00CB0075
:0215E400DF0026
:107E0000112484B714BE81FFF0D085E080938100F7
:107E100082E08093C00088E18093C10086E0809377
:107E2000C20080E18093C4008EE0C9D0259A86E02C
:107E300020E33CEF91E0309385002093840096BBD3
:107E4000B09BFECF1D9AA8958150A9F7CC24DD24C4
:107E500088248394B5E0AB2EA1E19A2EF3E0BF2EE7
:107E6000A2D0813461F49FD0082FAFD0023811F036
:107E7000013811F484E001C083E08DD089C08234E0
:107E800011F484E103C0853419F485E0A6D080C0E4
:107E9000853579F488D0E82EFF2485D0082F10E0AE
:107EA000102F00270E291F29000F111F8ED06801E7
:107EB0006FC0863521F484E090D080E0DECF843638
:107EC00009F040C070D06FD0082F6DD080E0C81688
:107ED00080E7D80618F4F601B7BEE895C0E0D1E017
:107EE00062D089930C17E1F7F0E0CF16F0E7DF06D8
:107EF00018F0F601B7BEE89568D007B600FCFDCFD4
:107F0000A601A0E0B1E02C9130E011968C91119780
:107F100090E0982F8827822B932B1296FA010C0160
:107F200087BEE89511244E5F5F4FF1E0A038BF0790
:107F300051F7F601A7BEE89507B600FCFDCF97BE46
:107F4000E89526C08437B1F42ED02DD0F82E2BD052
:107F50003CD0F601EF2C8F010F5F1F4F84911BD097
:107F6000EA94F801C1F70894C11CD11CFA94CF0C13
:107F7000D11C0EC0853739F428D08EE10CD085E9AC
:107F80000AD08FE07ACF813511F488E018D01DD067
:107F900080E101D065CF982F8091C00085FFFCCF94
:107FA0009093C60008958091C00087FFFCCF809118
:107FB000C00084FD01C0A8958091C6000895E0E648
:107FC000F0E098E1908380830895EDDF803219F02E
:107FD00088E0F5DFFFCF84E1DECF1F93182FE3DFCA
:107FE0001150E9F7F2DF1F91089580E0E8DFEE27F6
:047FF000FF270994CA
:027FFE00040479
:0400000300007E007B
:00000001FF
