:100000000C9463000C948B000C948B000C945005A2
:100010000C9450050C9450050C948B000C948B00A0
:100020000C948B000C948B000C948B000C948B0024
:100030000C948B000C948B000C948B000C948B0014
:100040000C9406050C948B000C94D4040C94AE0410
:100050000C948B000C948B000C948B000C948B00F4
:100060000C948B000C948B000000000024002700EF
:100070002A0000000008000201000003040700003D
:1000800000000000000000000000250028002B00F8
:1000900000000000230026002900040404040404D6
:1000A0000404020202020202030303030303010227
:1000B00004081020408001020408102001020408F6
:1000C0001020CA05440A11241FBECFEFD8E0DEBFBE
:1000D000CDBF11E0A0E0B1E0ECEDFCE102C0059085
:1000E0000D92A234B107D9F724E0A2E4B1E001C037
:1000F0001D92AF37B207E1F710E0C2E6D0E004C0CE
:100100002197FE010E94290DC136D107C9F70E942F
:10011000D3060C94610E0C940000CF92DF92EF9204
:10012000FF920F931F93CF93DF936C017A018B01A2
:10013000C0E0D0E0CE15DF0589F0D8016D918D01CA
:10014000D601ED91FC910190F081E02DC601099559
:10015000892B11F47E0102C02196ECCFC701DF91FB
:10016000CF911F910F91FF90EF90DF90CF90089566
:10017000FC01538D448D252F30E0842F90E0821BAD
:10018000930B541710F0CF96089501970895FC0132
:10019000918D828D981761F0828DDF01A80FB11DBE
:1001A0005D968C91928D9F5F9F73928F90E00895E2
:1001B0008FEF9FEF0895FC01918D828D981731F09C
:1001C000828DE80FF11D858D90E008958FEF9FEFF0
:1001D0000895FC01918D228D892F90E0805C9F4FC6
:1001E000821B91098F73992708958FEB91E00E94EC
:1001F000E90021E0892B09F420E0822F0895FC0119
:10020000848DDF01A80FB11DA35ABF4F2C91848D9F
:1002100090E001968F739927848FA689B7892C93D4
:10022000A089B1898C9180648C93938D848D98136F
:1002300006C00288F389E02D80818F7D8083089538
:10024000EF92FF920F931F93CF93DF93EC0181E026
:10025000888F9B8D8C8D981305C0E889F9898081E2
:1002600085FD24C0F62E0B8D10E00F5F1F4F0F731E
:100270001127E02E8C8DE8120CC00FB607FCFACFC8
:10028000E889F989808185FFF5CFCE010E94FF00C2
:10029000F1CF8B8DFE01E80FF11DE35AFF4FF08285
:1002A0000B8FEA89FB898081806207C0EE89FF8914
:1002B0006083E889F98980818064808381E090E0AF
:1002C000DF91CF911F910F91FF90EF900895CF9301
:1002D000DF93EC01888D8823C9F0EA89FB8980814E
:1002E00085FD05C0A889B9898C9186FD0FC00FB620
:1002F00007FCF5CF808185FFF2CFA889B9898C9161
:1003000085FFEDCFCE010E94FF00E7CFDF91CF91B7
:10031000089580E090E0892B29F00E94F50081117A
:100320000C9400000895833081F028F4813099F016
:100330008230A1F008958730A9F08830B9F0843078
:10034000D1F4809180008F7D03C0809180008F77F1
:1003500080938000089584B58F7702C084B58F7D27
:1003600084BD08958091B0008F7703C08091B00064
:100370008F7D8093B00008951F93CF93DF93282F34
:1003800030E0F901EE58FF4F8491F901E255FF4F3B
:10039000D491F901E656FF4FC491CC23C9F0162F32
:1003A00081110E949301EC2FF0E0EE0FFF1FEA573E
:1003B000FF4FA591B4918FB7F894111105C09C918E
:1003C000ED2FE095E92302C0EC91ED2BEC938FBF6C
:1003D000DF91CF911F910895CF93DF9390E0FC01BF
:1003E000E255FF4F2491FC01E656FF4F849188238C
:1003F00061F190E0880F991FFC01E859FF4FC5910A
:10040000D491FC01EA57FF4FA591B491611109C045
:100410009FB7F8948881209582238883EC912E23BE
:100420000BC0623061F49FB7F8943881822F8095B9
:1004300083238883EC912E2B2C939FBF06C08FB70C
:10044000F894E8812E2B28838FBFDF91CF910895F8
:100450001F93CF93DF93182FEB0161E00E94EC0113
:10046000209711F460E004C0CF3FD10539F461E07A
:10047000812FDF91CF911F910C94BC01E12FF0E00F
:10048000EE58FF4FE491E330F9F048F4E130B9F071
:10049000E230A1F584B5806284BDC8BD34C0E730C8
:1004A000E9F0E83019F1E43049F58091800080628C
:1004B00080938000D0938B00C0938A0024C084B5C1
:1004C000806884BDC7BD1FC0809180008068809314
:1004D0008000D0938900C093880015C08091B0003F
:1004E00080688093B000C093B3000DC08091B000CD
:1004F00080628093B000C093B40005C0C038D105BD
:100500000CF0B5CFAFCFDF91CF911F9108953FB7DA
:10051000F8948091870190918801A0918901B09110
:100520008A0126B5A89B05C02F3F19F00196A11D91
:10053000B11D3FBFBA2FA92F982F8827820F911D79
:10054000A11DB11DBC01CD0142E0660F771F881FC0
:10055000991F4A95D1F70895209184013091850122
:100560002817390771F490918301809182019817BF
:1005700041F0E0918301F0E0EE5BFE4F808190E07E
:1005800008958FEF9FEF089508951F93CF93DF9302
:10059000DC015C962D913C915D972115310539F474
:1005A00081E090E013969C938E9312973DC05196F4
:1005B000ED91FC91529750969C915097892F809580
:1005C0001FB75E964C915E9741FB772770F941FD0E
:1005D0006095F8944081772311F0492B01C048239E
:1005E0004083E9012197F1F748E0508160FF02C0A4
:1005F000592B01C058235083E9012197F1F76695E3
:10060000415099F7772321F090818923808303C09B
:100610008081982B90831FBF5C968D919C915D97F4
:100620000197F1F721E030E0C901DF91CF911F91EF
:10063000089520918401309185012817390771F4BC
:10064000809182012091830190E0805C9F4F821B0A
:10065000910960E470E00E94010D089580E090E04F
:100660000895209184013091850128173907B9F444
:100670009091830180918201981789F0E091830124
:10068000F0E0EE5BFE4F80812091830130E02F5F30
:100690003F4F2F7333272093830190E008958FEF0E
:1006A0009FEF0895089580E090E008952F923F9283
:1006B0004F925F926F927F928F929F92AF92BF9272
:1006C000CF92DF92EF92FF920F931F93CF93DF931E
:1006D000FC01F280FF2009F48DC0EC0180818111C2
:1006E0004EC0E12C8F2C912C2401F1E04F1A5108BF
:1006F0008E2D90E084159505ECF5772473942224D3
:1007000023945401A81AB90A072D10E00A151B05F5
:100710007CF5CE01800F911F9C01215B3F4F690149
:10072000F90130808C01005B1F4FF8016080FE01F1
:1007300024E0329EE00DF11D1124DE0134E0639EC1
:10074000A00DB11D112414962D913D914D915C91F8
:10075000179764817581868197810E948F0C181686
:100760002CF4F6016082F8013082212C7394CCCFF6
:10077000222019F081E0888302C0E394B9CF8F2D45
:100780008695F0FE10C0FE01E80FF11DE05BFF4F03
:100790008081F4E08F9FC00DD11D11246C817D817B
:1007A0008E819F812BC09E01280F311DF901E05BD6
:1007B000FF4F2081DE0134E0239FA00DB11D1124E5
:1007C0003197808194E0899FC00DD11D11242C8127
:1007D0003D814E815F8114966D917D918D919C91AB
:1007E00017970E94C40A20E030E040E05FE30E94D7
:1007F000940C04C060E070E080EC9FE7DF91CF9143
:100800001F910F91FF90EF90DF90CF90BF90AF902E
:100810009F908F907F906F905F904F903F902F9020
:100820000895FC011282138210829181E05BFF4FD8
:1008300080E0891719F081938F5FFBCF08950097AF
:1008400069F0FC0101900020E9F73197AF01481BE6
:10085000590BBC018FEB91E00C948D0080E090E08F
:1008600008958F929F92AF92BF92CF92DF92EF92B4
:10087000FF920F931F93CF93DF93CDB7DEB7A1976E
:100880000FB6F894DEBF0FBECDBF6C01990FEE0816
:10089000FF08F7FE31C0E091BF01F091C001019067
:1008A000F081E02D6DE28FEB91E009958C0122271C
:1008B0003327A9012C193D094E095F0919A2CE0160
:1008C00081967C019AE0892E912CA12CB12CCA0131
:1008D000B901A50194010E94920A605DF70162933B
:1008E0007F01211531054105510589F7CF010E948E
:1008F0001F04800F911F1DC0A701960119A28E0130
:100900000F5D1F4F8AE0C82ED12CE12CF12CCA01BB
:10091000B901A70196010E94920A605DF8016293F5
:100920008F01211531054105510589F7CF010E943D
:100930001F04A1960FB6F894DEBF0FBECDBFDF91A6
:10094000CF911F910F91FF90EF90DF90CF90BF90CC
:10095000AF909F908F9008950E945C0E1F920F920F
:100960000FB60F9211242F933F934F935F936F9382
:100970007F938F939F93AF93BF93EF93FF938FEBEF
:1009800091E00E94FF00FF91EF91BF91AF919F9185
:100990008F917F916F915F914F913F912F910F9028
:1009A0000FBE0F901F9018951F920F920FB60F92C7
:1009B00011242F938F939F93EF93FF93E091CF0197
:1009C000F091D0018081E091D501F091D60182FDB6
:1009D00012C090818091D8018F5F8F732091D901CF
:1009E000821751F0E091D801F0E0E154FE4F958F6D
:1009F0008093D80101C08081FF91EF919F918F91E9
:100A00002F910F900FBE0F901F9018951F920F926D
:100A10000FB60F9211242F933F938F939F93AF9311
:100A2000BF9380919B0190919C01A0919D01B091F9
:100A30009E013091860123E0230F2D3720F401968B
:100A4000A11DB11D05C026E8230F0296A11DB11DF1
:100A50002093860180939B0190939C01A0939D011C
:100A6000B0939E018091870190918801A0918901A6
:100A7000B0918A010196A11DB11D809387019093C9
:100A80008801A0938901B0938A01BF91AF919F9192
:100A90008F913F912F910F900FBE0F901F9018953F
:100AA0001F920F920FB60F9211242F933F934F93E3
:100AB0005F936F937F938F939F93AF93BF93EF93C6
:100AC000FF93E0918401F0918501309709F451C0C2
:100AD000968DA685B785858591FF04C09C91892355
:100AE00029F447C09C91892309F043C0A389B489A4
:100AF0009C918589809589238C9386899789019714
:100B0000F1F7608D718DA685B785558538E020E0B9
:100B1000CB010197F1F7822F90E095958795282FCB
:100B20004C91452309F02068315091F7868D81FD65
:100B300020958091820190E001968F7399273091E2
:100B40008301381749F0A0918201B0E0AE5BBE4F3F
:100B50002C938093820103C0868D8160868F828D65
:100B6000938D0197F1F7A389B4899C918589892B8D
:100B70008C93FF91EF91BF91AF919F918F917F9156
:100B80006F915F914F913F912F910F900FBE0F90FA
:100B90001F901895CF931092C2011092C10188EE58
:100BA00093E0A0E0B0E08093C3019093C401A093D0
:100BB000C501B093C6018CE191E09093C001809390
:100BC000BF0185EC90E09093CC018093CB0184EC45
:100BD00090E09093CE018093CD0180EC90E09093D3
:100BE000D0018093CF0181EC90E09093D20180936B
:100BF000D10182EC90E09093D4018093D30186ECF4
:100C000090E09093D6018093D5011092D801109274
:100C1000D9011092DA011092DB0188EC80936A040A
:100C200080E293E00E942F0D9093720480937104F0
:100C3000009711F410926A0410926B0410926C04E5
:100C400010926D0410926E0410926F041092700452
:100C500040E050E060EC7FE74093730450937404ED
:100C600060937504709376044093770450937804EE
:100C70006093790470937A0420916A04FC0180E007
:100C8000821731F011921192119211928F5FF8CF69
:100C9000C3E1C093080487E094E00E941104C0936C
:100CA0007C028BE792E00E941104C093DF028EED7C
:100CB00092E00E941104C093420381E493E00E94F9
:100CC0001104C093A50384EA93E00E9411041092DA
:100CD0005F0210925E0288EE93E0A0E0B0E08093A5
:100CE000600290936102A0936202B09363028EE26D
:100CF00091E090935D0280935C02109273021092D7
:100D00007202109275021092740210927702109281
:100D10007602109279021092780260917A026E7FC8
:100D20006D7F60937A026695617081E068270E940A
:100D3000BC0161E081E00E94EC01EFEAF0E0E491A7
:100D4000E0936C02EBE9F0E0E491F0E0EE0FFF1FBE
:100D5000EA57FF4F8591949190936E0280936D02B4
:100D600060E080E00E94EC0180917A0281FD04C085
:100D700061E080E00E94BC0110926802EEEAF0E0BF
:100D8000E491E0936902EAE9F0E0E491F0E0EE0F2B
:100D9000FF1FE057FF4F8591949190936B028093D2
:100DA0006A02CF910895CF93DF93CDB7DEB728972E
:100DB0000FB6F894DEBF0FBECDBF789484B58260C5
:100DC00084BD84B5816084BD85B5826085BD85B5EF
:100DD000816085BD80916E00816080936E0010926D
:100DE00081008091810082608093810080918100E8
:100DF0008160809381008091800081608093800079
:100E00008091B10084608093B1008091B0008160D6
:100E10008093B00080917A00846080937A00809102
:100E20007A00826080937A0080917A00816080935A
:100E30007A0080917A00806880937A001092C100D5
:100E400008E011E061E0D8018C910E94EC0160E0C3
:100E5000F80182810E94EC010C5F1F4FF1E0083124
:100E60001F0781F761E088E00E94EC0161E08EE0FD
:100E70000E94EC01E091CF01F091D00182E08083EB
:100E8000E091CB01F091CC011082E091CD01F09185
:100E9000CE018FEC80831092D701E091D301F091C5
:100EA000D40186E08083E091D101F091D20180816C
:100EB00080618083E091D101F091D20180818860CE
:100EC0008083E091D101F091D2018081806880839C
:100ED000E091D101F091D20180818F7D808380E407
:100EE00080937C0080917A00806480937A00809166
:100EF0007A0086FDFCCF6091780080917900209186
:100F00000A0411E0120F10930A0444E0249F900198
:100F10001124D901A55FBB4F7D0170E0782B072E0E
:100F2000000C880B990B0E94DF0BF7016083718323
:100F30008283938390910804191710F010920A0489
:100F400080910904891718F48F5F80930904109227
:100F5000070487E094E00E9456030E94A70B9B01C0
:100F6000AC01AFEFB0E00E94870A25E030E040E03E
:100F700050E00E94680A6CE370E0621B730B77FF1D
:100F800002C060E070E0072E000C880B990B0E94F5
:100F9000DF0B6B017C01009171041091720401154B
:100FA000110509F48CC080916C045801F4E08F9F06
:100FB000A00CB11C1124D5012D913D914D915C9156
:100FC00060916D0470916E0480916F049091700433
:100FD0000E94C30A60936D0470936E0480936F0443
:100FE00090937004F501C082D182E282F382B090C6
:100FF0006C04F80124E0B29EE00DF11D1124208163
:1010000031814281538160916D0470916E048091B1
:101010006F04909170040E94C40A60936D047093F1
:101020006E0480936F049093700481E08B0D809325
:101030006C04A0906A048A1102C010926C04B090F3
:101040006B04B11009C0C0927704D0927804E0928A
:101050007904F0927A040EC02091730430917404E4
:101060004091750450917604C701B6010E94300B7F
:1010700087FF09C0C0927304D0927404E092750493
:10108000F092760417C02091770430917804409153
:10109000790450917A04C701B6010E948F0C18168A
:1010A0000CF0EEC1C0927704D0927804E0927904FB
:1010B000F0927A04BA1418F4B394B0926B04B0901E
:1010C0006B04BB2009F1A12CC12CD12C7601AB14EF
:1010D00071F0D8012D913D914D915D918D01C70128
:1010E000B6010E94C40A6B017C01A394F0CF6A2D63
:1010F00070E080E090E00E94DF0B9B01AC01C70133
:10110000B6010E94350B04C060E070E080EC9FE700
:101110000E94A70B7093010160930001EBE8F1E0DE
:10112000FE83ED832BEA31E03C832B834BEB51E0D4
:101130005A8349833BE7232E32E0332E8EE792E039
:1011400098878F8301EA11E048E0C42E41E0D42E55
:10115000E12CF12C2FB7F89480919B0190919C0188
:10116000A0919D01B0919E012FBFED81FE81408134
:10117000518162817381841B950BA60BB70B02977B
:10118000A105B105A0F0C1010E9411042FB7F89488
:1011900080919B0190919C01A0919D01B0919E0135
:1011A0002FBFED81FE8180839183A283B383D6011B
:1011B00012962D913C9113973327F901EE58FF4F6A
:1011C0008491F901E255FF4F9490F901E656FF4FE3
:1011D00084908820A1F081110E949301E82DF0E015
:1011E000EE0FFF1FE057FF4FA591B491EC919E22A7
:1011F00091E080E009F490E0692F782F02C060E070
:1012000070E0EF81F885808077247394780C708289
:10121000912CFFEF8F1A9F0A880C991C880C991C3F
:1012200023E62E9DC0012F9D900D1124880D991D40
:10123000AC0145585D4F4A01072E000C880B990BF5
:101240000E94DF0BD4016D937D938D939C93139734
:10125000EF81F88532979081791618F0EF81F88543
:101260001082EF81F8858291891710F48F5F808357
:10127000D1011C92C1010E9456030E94A70BE98173
:10128000FA818081672B61F58111D0C080910001C6
:1012900090910101181619060CF0C8C02FB7F894E8
:1012A00080919B0190919C01A0919D01B0919E0124
:1012B0002FBFEB81FC8180839183A283B3836FEF87
:1012C00070E0D6018C910E942802F80182819381FE
:1012D00001969383828381E0A981BA818C93A6C011
:1012E000882309F49BC0E114F10409F48CC0D801EF
:1012F0008D919C91119701978D939C938091A3015F
:101300009091A4010E9431048CE391E00E941F049B
:101310008091A5019091A6010E9431048CE391E097
:101320000E941F048091A7019091A8010E9431049E
:101330008CE391E00E941F048091A9019091AA0181
:101340000E94310480E491E00E941F048EE391E04A
:101350000E941F04EB81FC81608171813497808140
:101360009181681B790B161617060CF04CC0072EDE
:10137000000C880B990B0E94DF0B9B01AC0160E015
:1013800070E084EB92E40E94350B60939F017093B0
:10139000A0018093A1019093A20120E030E040E8F9
:1013A0005FE30E948F0C181654F561E088E00E94FC
:1013B000BC010E9487024B015C018AEF482E512C30
:1013C000612C712C0E948702DC01CB0188199909DC
:1013D000AA09BB09883E9340A105B10558F0F1E088
:1013E0004F1A51086108710828EE820E23E0921E00
:1013F000A11CB11C411451046104710419F760E08F
:1014000088E00E94BC016091000170910101D60149
:101410008C910E942802E981FA811082609100017A
:1014200070910101D6018C910E942802BFEFEB1A46
:10143000FB0AED81FE813496FE83ED83F4E0CF0E4E
:10144000D11C2B813C812C5F3F4F3C832B834981F6
:101450005A814F5F5F4F5A83498353E6250E311CF3
:101460008F8198858D599F4F98878F830E5F1F4F6F
:1014700094E0E916F10409F06DCE0E9489012FCDA8
:10148000BA1408F419CE1FCE8EE291E090935D025B
:1014900080935C0280918401909185018C559240EB
:1014A00071F4E0916F02F09170029081809171026D
:1014B0008095892380831092850110928401809108
:1014C000710490917204009711F00C94C40D08956A
:1014D000052E97FB1EF400940E947F0A57FD07D04B
:1014E0000E94920A07FC03D04EF40C947F0A509598
:1014F0004095309521953F4F4F4F5F4F0895909500
:101500008095709561957F4F8F4F9F4F08950E94F2
:10151000B40AA59F900DB49F900DA49F800D911DBE
:1015200011240895A1E21A2EAA1BBB1BFD010DC0B8
:10153000AA1FBB1FEE1FFF1FA217B307E407F50783
:1015400020F0A21BB30BE40BF50B661F771F881F5F
:10155000991F1A9469F760957095809590959B01F5
:10156000AC01BD01CF010895A29FB001B39FC0019E
:10157000A39F700D811D1124911DB29F700D811DBF
:101580001124911D08955058BB27AA270E94DB0AF9
:101590000C94550C0E94470C38F00E944E0C20F021
:1015A00039F49F3F19F426F40C94440C0EF4E095A2
:1015B000E7FB0C943E0CE92F0E94660C58F3BA1717
:1015C000620773078407950720F079F4A6F50C9459
:1015D000880C0EF4E0950B2EBA2FA02D0B01B9014B
:1015E00090010C01CA01A0011124FF27591B99F099
:1015F000593F50F4503E68F11A16F040A22F232FA5
:10160000342F4427585FF3CF469537952795A795F4
:10161000F0405395C9F77EF41F16BA0B620B730B9B
:10162000840BBAF09150A1F0FF0FBB1F661F771F0C
:10163000881FC2F70EC0BA0F621F731F841F48F4C1
:10164000879577956795B795F7959E3F08F0B0CF4A
:101650009395880F08F09927EE0F97958795089531
:101660000E941A0C08F481E008950E94490B0C9422
:10167000550C0E944E0C58F00E94470C40F029F483
:101680005F3F29F00C943E0C51110C94890C0C9482
:10169000440C0E94660C68F39923B1F3552391F32F
:1016A000951B550BBB27AA2762177307840738F0D1
:1016B0009F5F5F4F220F331F441FAA1FA9F335D02E
:1016C0000E2E3AF0E0E832D091505040E695001CE2
:1016D000CAF72BD0FE2F29D0660F771F881FBB1F9C
:1016E000261737074807AB07B0E809F0BB0B802D7A
:1016F000BF01FF2793585F4F3AF09E3F510578F0A6
:101700000C943E0C0C94890C5F3FE4F3983ED4F3A8
:10171000869577956795B795F7959F5FC9F7880F79
:10172000911D9695879597F90895E1E0660F771FCB
:10173000881FBB1F621773078407BA0720F0621B5C
:10174000730B840BBA0BEE1F88F7E09508950E9487
:10175000AE0B6894B1110C94890C08950E946E0C24
:1017600088F09F5798F0B92F9927B751B0F0E1F062
:10177000660F771F881F991F1AF0BA95C9F714C012
:10178000B13091F00E94880CB1E008950C94880C5F
:10179000672F782F8827B85F39F0B93FCCF386954B
:1017A00077956795B395D9F73EF4909580957095A8
:1017B00061957F4F8F4F9F4F0895E89409C097FB25
:1017C0003EF490958095709561957F4F8F4F9F4F18
:1017D0009923A9F0F92F96E9BB279395F69587955C
:1017E00077956795B795F111F8CFFAF4BB0F11F41F
:1017F00060FF1BC06F5F7F4F8F4F9F4F16C08823C6
:1018000011F096E911C0772321F09EE8872F762FFB
:1018100005C0662371F096E8862F70E060E02AF03C
:101820009A95660F771F881FDAF7880F9695879528
:1018300097F90895990F0008550FAA0BE0E8FEEFFD
:1018400016161706E807F907C0F012161306E40784
:10185000F50798F0621B730B840B950B39F40A267D
:1018600061F0232B242B252B21F408950A2609F45B
:10187000A140A6958FEF811D811D089597F99F675F
:1018800080E870E060E008959FEF80EC0895002408
:101890000A941616170618060906089500240A94D5
:1018A00012161306140605060895092E0394000C5B
:1018B00011F4882352F0BB0F40F4BF2B11F460FFEA
:1018C00004C06F5F7F4F8F4F9F4F089557FD905813
:1018D000440F551F59F05F3F71F04795880F97FBF4
:1018E000991F61F09F3F79F08795089512161306AE
:1018F0001406551FF2CF4695F1DF08C016161706DD
:101900001806991FF1CF8695710561050894089511
:10191000E894BB2766277727CB0197F908950E94A3
:101920001A0C08F48FEF08950E94A70C0C94550C24
:101930000E94470C38F00E944E0C20F0952311F0C5
:101940000C943E0C0C94440C11240C94890C0E94B1
:10195000660C70F3959FC1F3950F50E0551F629F81
:10196000F001729FBB27F00DB11D639FAA27F00DF8
:10197000B11DAA1F649F6627B00DA11D661F829F1F
:101980002227B00DA11D621F739FB00DA11D621F04
:10199000839FA00D611D221F749F3327A00D611D21
:1019A000231F849F600D211D822F762F6A2F112403
:1019B0009F5750409AF0F1F088234AF0EE0FFF1F36
:1019C000BB1F661F771F881F91505040A9F79E3F8D
:1019D000510580F00C943E0C0C94890C5F3FE4F3AD
:1019E000983ED4F3869577956795B795F795E795E3
:1019F0009F5FC1F7FE2B880F911D9695879597F9EC
:101A0000089597FB072E16F4009407D077FD09D0B0
:101A10000E94150D07FC05D03EF4909581959F4FCF
:101A20000895709561957F4F0895AA1BBB1B51E1E6
:101A300007C0AA1FBB1FA617B70710F0A61BB70B3E
:101A4000881F991F5A95A9F780959095BC01CD01E3
:101A50000895EE0FFF1F0590F491E02D0994CF93A8
:101A6000DF938230910510F482E090E0E0917D04F4
:101A7000F0917E0420E030E0C0E0D0E0309711F13A
:101A80004081518148175907C0F04817590761F440
:101A900082819381209719F09B838A832BC0909336
:101AA0007E0480937D0426C02115310519F042176C
:101AB000530718F49A01BE01DF01EF010280F381A0
:101AC000E02DDCCF2115310509F1281B390B24301D
:101AD000310590F412968D919C91139761157105C3
:101AE00021F0FB019383828304C090937E04809352
:101AF0007D04FD01329644C0FD01E20FF31F819386
:101B00009193225031092D933C933AC020917B044C
:101B100030917C04232B41F4209104013091050184
:101B200030937C0420937B042091020130910301C7
:101B30002115310541F42DB73EB740910601509172
:101B40000701241B350BE0917B04F0917C04E21724
:101B5000F307A0F42E1B3F0B2817390778F0AC01D0
:101B60004E5F5F4F2417350748F04E0F5F1F5093AD
:101B70007C0440937B048193919302C0E0E0F0E009
:101B8000CF01DF91CF9108950F931F93CF93DF93F0
:101B9000009709F48CC0FC013297138212820091E5
:101BA0007D0410917E040115110581F4208131819D
:101BB000820F931F20917B0430917C0428173907F2
:101BC00079F5F0937C04E0937B0471C0D80140E088
:101BD00050E0AE17BF0750F412962D913C91139729
:101BE000AD012115310509F1D901F3CF9D01DA01CC
:101BF0003383228360817181860F971F8217930739
:101C000069F4EC0128813981260F371F2E5F3F4F81
:101C1000318320838A819B8193838283452B29F49E
:101C2000F0937E04E0937D0442C01396FC93EE9300
:101C30001297ED01499159919E01240F351FE2172A
:101C4000F30771F480819181840F951F029611969C
:101C50009C938E938281938113969C938E9312977B
:101C6000E0E0F0E0D80112968D919C9113970097D7
:101C700019F0F8018C01F6CF8D919C9198012E5F9F
:101C80003F4F820F931F20917B0430917C042817D3
:101C9000390769F4309729F410927E0410927D047C
:101CA00002C01382128210937C0400937B04DF91A4
:101CB000CF911F910F91089581E090E0F8940C94DA
:101CC000610E10E0C2E6D0E004C0FE010E94290DC2
:0C1CD0002196C336D107C9F7F894FFCF66
:101CDC000A0000007F04800009000D0006000C00C3
:101CEC0003000B0005000A000000000020018D001D
:101CFC00B8006701E900C700DB0000000000C50266
:101D0C008D005303C40219033103AC022B000D0ADE
:021D1C000000C5
:00000001FF
