:100000000C9462000C948A000C948A000C948A0070
:100010000C948A000C948A000C948A000C948A0038
:100020000C948A000C948A000C948A000C948A0028
:100030000C948A000C948A000C948A000C948A0018
:100040000C94CB030C948A000C9499030C947303C6
:100050000C948A000C948A000C948A000C948A00F8
:100060000C948A000C948A000000000024002700F1
:100070002A0000000000250028002B0000000000DE
:1000800023002600290004040404040404040202DA
:100090000202020203030303030301020408102007
:1000A0004080010204081020010204081020000012
:1000B0000008000201000003040700000000000027
:1000C0000000130611241FBECFEFD8E0DEBFCDBF66
:1000D00011E0A0E0B1E0E6E5F1E102C005900D928B
:1000E000A632B107D9F721E0A6E2B1E001C01D9226
:1000F000A53DB207E1F710E0C2E6D0E004C02197C9
:10010000FE010E949E08C136D107C9F70E9415045E
:100110000C94A9080C940000CF92DF92EF92FF920A
:100120000F931F93CF93DF936C017A018B01C0E093
:10013000D0E0CE15DF0589F0D8016D918D01D60193
:10014000ED91FC910190F081E02DC6010995892B7C
:1001500011F47E0102C02196ECCFC701DF91CF914F
:100160001F910F91FF90EF90DF90CF900895089529
:1001700080E090E00895FC01538D448D252F30E000
:10018000842F90E0821B930B541710F0CF960895A4
:1001900001970895FC01918D828D981761F0828DF1
:1001A000DF01A80FB11D5D968C91928D9F5F9F73AB
:1001B000928F90E008958FEF9FEF0895FC01918D4D
:1001C000828D981731F0828DE80FF11D858D90E0BA
:1001D00008958FEF9FEF0895FC01918D228D892F57
:1001E00090E0805C9F4F821B91098F73992708953F
:1001F00088E391E00E94EC0021E0892B09F420E0E3
:10020000822F0895FC01848DDF01A80FB11DA35A30
:10021000BF4F2C91848D90E001968F739927848F26
:10022000A689B7892C93A089B1898C9180648C931D
:10023000938D848D981306C00288F389E02D808108
:100240008F7D80830895EF92FF920F931F93CF933A
:10025000DF93EC0181E0888F9B8D8C8D981305C016
:10026000E889F989808185FD24C0F62E0B8D10E088
:100270000F5F1F4F0F731127E02E8C8DE8120CC0FB
:100280000FB607FCFACFE889F989808185FFF5CFA1
:10029000CE010E940201F1CF8B8DFE01E80FF11D0E
:1002A000E35AFF4FF0820B8FEA89FB8980818062DD
:1002B00007C0EE89FF896083E889F98980818064BD
:1002C000808381E090E0DF91CF911F910F91FF90AB
:1002D000EF900895CF93DF93EC01888D8823C9F0C8
:1002E000EA89FB89808185FD05C0A889B9898C913F
:1002F00086FD0FC00FB607FCF5CF808185FFF2CFDA
:10030000A889B9898C9185FFEDCFCE010E940201A9
:10031000E7CFDF91CF91089580E090E0892B29F01D
:100320000E94F80081110C9400000895833081F040
:1003300028F4813099F08230A1F008958730A9F037
:100340008830B9F08430D1F4809180008F7D03C073
:10035000809180008F7780938000089584B58F7797
:1003600002C084B58F7D84BD08958091B0008F77E1
:1003700003C08091B0008F7D8093B0000895CF932B
:10038000DF93282F30E0F901E255FF4F8491F90106
:10039000E656FF4FD491F901EA57FF4FC491CC23A1
:1003A00091F081110E949601EC2FF0E0EE0FFF1FFB
:1003B000E458FF4FA591B491EC91ED2381E090E0DA
:1003C00021F480E002C080E090E0DF91CF910895B9
:1003D0001F93CF93DF93282F30E0F901E255FF4FB1
:1003E0008491F901E656FF4FD491F901EA57FF4F86
:1003F000C491CC23C9F0162F81110E949601EC2FD5
:10040000F0E0EE0FFF1FEE58FF4FA591B4918FB7AC
:10041000F894111105C09C91ED2FE095E92302C0DD
:10042000EC91ED2BEC938FBFDF91CF911F9108954D
:10043000CF93DF9390E0FC01E656FF4F2491FC013F
:10044000EA57FF4F8491882361F190E0880F991F4C
:10045000FC01E859FF4FC591D491FC01EE58FF4FC4
:10046000A591B491611109C09FB7F8948881209536
:1004700082238883EC912E230BC0623061F49FB7F6
:10048000F8943881822F809583238883EC912E2BDA
:100490002C939FBF06C08FB7F894E8812E2B28833A
:1004A0008FBFDF91CF9108951F93CF93DF93182FC4
:1004B000EB0161E00E941802209711F460E004C093
:1004C000CF3FD10539F461E0812FDF91CF911F91AA
:1004D0000C94E801E12FF0E0E255FF4FE491E330A6
:1004E000F9F048F4E130B9F0E230A1F584B580626A
:1004F00084BDC8BD34C0E730E9F0E83019F1E4301C
:1005000049F580918000806280938000D0938B00B9
:10051000C0938A0024C084B5806884BDC7BD1FC055
:1005200080918000806880938000D0938900C09380
:10053000880015C08091B00080688093B000C0939F
:10054000B3000DC08091B00080628093B000C09372
:10055000B40005C0C038D1050CF0B5CFAFCFDF91E6
:10056000CF911F9108953FB7F89480912B019091FE
:100570002C01A0912D01B0912E0126B5A89B05C09C
:100580002F3F19F00196A11DB11D3FBFBA2FA92F12
:10059000982F8827820F911DA11DB11DBC01CD018F
:1005A00042E0660F771F881F991F4A95D1F708957B
:1005B0008F929F92AF92BF92CF92DF92EF92FF9273
:1005C0006B017C010E94B3024B015C01C114D10498
:1005D000E104F104F1F00E94B302DC01CB018819BF
:1005E0009909AA09BB09883E9340A105B10570F39A
:1005F00021E0C21AD108E108F10888EE880E83E0F4
:10060000981EA11CB11CC114D104E104F10419F716
:10061000DDCFFF90EF90DF90CF90BF90AF909F9095
:100620008F9008952FB7F894609127017091280159
:100630008091290190912A012FBF0895009769F0B8
:10064000FC0101900020E9F73197AF01481B590BDD
:10065000BC0188E391E00C948C0080E090E0089568
:100660008F929F92AF92BF920F931F93CF93DF937E
:10067000CDB7DEB7A1970FB6F894DEBF0FBECDBFE2
:1006800019A2423008F44AE08E010F5D1F4F842EFC
:10069000912CA12CB12CA50194010E947C08E62F7D
:1006A000B901CA0101501109EA3014F4E05D01C03A
:1006B000E95CD801EC93232B242B252B61F7C8018F
:1006C0000E941E03A1960FB6F894DEBF0FBECDBFE9
:1006D000DF91CF911F910F91BF90AF909F908F901E
:1006E00008950E94A4081F920F920FB60F92112432
:1006F0002F933F934F935F936F937F938F939F932A
:10070000AF93BF93EF93FF9388E391E00E940201C0
:10071000FF91EF91BF91AF919F918F917F916F91D9
:100720005F914F913F912F910F900FBE0F901F90AF
:1007300018951F920F920FB60F9211242F938F933B
:100740009F93EF93FF93E0914801F09149018081DD
:10075000E0914E01F0914F0182FD12C09081809195
:1007600051018F5F8F7320915201821751F0E091F8
:100770005101F0E0E85CFE4F958F8093510101C07C
:100780008081FF91EF919F918F912F910F900FBEDC
:100790000F901F9018951F920F920FB60F92112471
:1007A0002F933F938F939F93AF93BF938091270194
:1007B00090912801A0912901B0912A013091260140
:1007C00023E0230F2D3720F40196A11DB11D05C094
:1007D00026E8230F0296A11DB11D209326018093C8
:1007E000270190932801A0932901B0932A018091B9
:1007F0002B0190912C01A0912D01B0912E01019619
:10080000A11DB11D80932B0190932C01A0932D016C
:10081000B0932E01BF91AF919F918F913F912F91F6
:100820000F900FBE0F901F901895789484B582603A
:1008300084BD84B5816084BD85B5826085BD85B584
:10084000816085BD80916E00816080936E00109202
:10085000810080918100826080938100809181007D
:10086000816080938100809180008160809380000E
:100870008091B10084608093B1008091B00081606C
:100880008093B00080917A00846080937A00809198
:100890007A00826080937A0080917A0081608093F0
:1008A0007A0080917A00806880937A001092C1006B
:1008B00061E088E00E94180260E083E00E94180274
:1008C00061E08AE00E94180261E08DE00E94180257
:1008D000E0914801F091490182E08083E091440178
:1008E000F09145011082E0914601F09147018FECB3
:1008F000808310925001E0914C01F0914D0186E00F
:100900008083E0914A01F0914B0180818061808376
:10091000E0914A01F0914B01808188608083E091F1
:100920004A01F0914B01808180688083E0914A0107
:10093000F0914B0180818F7D808361E088E00E948F
:10094000E80183E00E94BF0120913701019779F50A
:10095000211125C10E941203609333017093340169
:1009600080933501909336010E9412034B015C0184
:10097000C0E0D0E0F12C01E010E00E941203CB01B6
:1009800088199909039754F0B8018AE00E9454022B
:100990000E9412034B015C010F5F1F4FF11031C128
:1009A00083E00E94BF01019709F0FCC02AC1222305
:1009B00009F4F0C0C0912F01D09130018091330132
:1009C00090913401C81BD90BBE010D2E000C880B71
:1009D000990B0E9455079B01AC0160E070E08CE828
:1009E00092E40E94B2066B017C014B015C019B0109
:1009F000AC010E947708882319F082E191E01AC0C7
:100A000026013701E89477F82FEF3FEF4FE75FE7D4
:100A1000C301B2010E94770881110FC02FEF3FEF91
:100A20004FE75FE7C301B2010E94AD0618162CF430
:100A300086E191E00E941E0384C02FEF3FEF4FE755
:100A40005FE4C701B6010E94050818161CF48AE18C
:100A500091E0F0CF2FEF3FEF4FE75FECC701B6011A
:100A60000E94AD0687FDF3CF20E030E0A901C70169
:100A7000B6010E94AD0687FF11C0E0913801F091E8
:100A800039010190F081E02D6DE288E391E0099554
:100A900046015701B7FAB094B7F8B0942AE037EDA1
:100AA00043EA5BE3C501B4010E9441064B015C01CE
:100AB0000E9424076B017C010E9453079B01AC013B
:100AC000C501B4010E9440064B015C014AE0C70128
:100AD000B6010E943003E0913801F0913901019094
:100AE000F081E02D6EE288E391E0099520E030E0AE
:100AF00040E251E4C501B4010E940A084B015C01C7
:100B00000E9424076B01E12CF12C4AE0C701B601D9
:100B10000E943003C701B6010E9453079B01AC013C
:100B2000C501B4010E94400620E030E040E251E4FB
:100B30000E940A080E94240780E090E04AE00E9498
:100B400030038EE191E00E941E0382E291E00E9458
:100B50001E03CA3FD10574F461E08DE00E94E801F4
:100B60006AEF70E080E090E00E94D80260E08DE0E3
:100B70000E94E801CFEFD0E0BE018AE00E9454025B
:100B800062E070E080E090E00E94D8022197A1F737
:100B90001092370161E070E08AE00E9454020E94E6
:100BA0008C01CFCEC93E83E0D8076CF00E941203BF
:100BB00060932F0170933001809331019093320143
:100BC000FF24F39401C021960F3F11050CF4D5CEFC
:100BD000F11013C083E00E94BF010197D1F0C93E1C
:100BE00083E0D807F4F00E94120360932F01709302
:100BF0003001809331019093320181E0809337017D
:100C0000CECF83E00E94BF010197F1F6C0E0D0E0B3
:100C1000DBCF83E00E94BF010197E1F6C0E0D0E0A6
:100C2000D9CF2196D7CFE8E3F1E01382128288EE84
:100C300093E0A0E0B0E084839583A683B78384E04B
:100C400091E09183808385EC90E09587848784ECA4
:100C500090E09787868780EC90E0918B808B81EC89
:100C600090E0938B828B82EC90E0958B848B86EC6A
:100C700090E0978B868B118E128E138E148E0895B2
:100C80005058BB27AA270E9458060C94CB070E94F5
:100C9000BD0738F00E94C40720F039F49F3F19F4D3
:100CA00026F40C94BA070EF4E095E7FB0C94B40715
:100CB000E92F0E94DC0758F3BA176207730784070D
:100CC000950720F079F4A6F50C94FE070EF4E09554
:100CD0000B2EBA2FA02D0B01B90190010C01CA01F6
:100CE000A0011124FF27591B99F0593F50F4503EA1
:100CF00068F11A16F040A22F232F342F4427585F93
:100D0000F3CF469537952795A795F0405395C9F7AA
:100D10007EF41F16BA0B620B730B840BBAF0915062
:100D2000A1F0FF0FBB1F661F771F881FC2F70EC001
:100D3000BA0F621F731F841F48F4879577956795D4
:100D4000B795F7959E3F08F0B0CF9395880F08F0C0
:100D50009927EE0F9795879508950E94900708F4BC
:100D600081E008950E94C6060C94CB070E94C40738
:100D700058F00E94BD0740F029F45F3F29F00C9421
:100D8000B40751110C94FF070C94BA070E94DC07BA
:100D900068F39923B1F3552391F3951B550BBB27AA
:100DA000AA2762177307840738F09F5F5F4F220FEF
:100DB000331F441FAA1FA9F335D00E2E3AF0E0E8E6
:100DC00032D091505040E695001CCAF72BD0FE2F30
:100DD00029D0660F771F881FBB1F261737074807C4
:100DE000AB07B0E809F0BB0B802DBF01FF2793587C
:100DF0005F4F3AF09E3F510578F00C94B4070C9485
:100E0000FF075F3FE4F3983ED4F3869577956795A7
:100E1000B795F7959F5FC9F7880F911D96958795B0
:100E200097F90895E1E0660F771F881FBB1F6217CF
:100E300073078407BA0720F0621B730B840BBA0B8D
:100E4000EE1F88F7E09508950E94E40788F09F5709
:100E500098F0B92F9927B751B0F0E1F0660F771FDE
:100E6000881F991F1AF0BA95C9F714C0B13091F0D4
:100E70000E94FE07B1E008950C94FE07672F782FBB
:100E80008827B85F39F0B93FCCF386957795679599
:100E9000B395D9F73EF490958095709561957F4F05
:100EA0008F4F9F4F0895E89409C097FB3EF49095AB
:100EB0008095709561957F4F8F4F9F4F9923A9F033
:100EC000F92F96E9BB279395F695879577956795C2
:100ED000B795F111F8CFFAF4BB0F11F460FF1BC006
:100EE0006F5F7F4F8F4F9F4F16C0882311F096E999
:100EF00011C0772321F09EE8872F762F05C0662347
:100F000071F096E8862F70E060E02AF09A95660FFF
:100F1000771F881FDAF7880F9695879597F90895B8
:100F2000990F0008550FAA0BE0E8FEEF16161706FA
:100F3000E807F907C0F012161306E407F50798F062
:100F4000621B730B840B950B39F40A2661F0232B7B
:100F5000242B252B21F408950A2609F4A140A695F7
:100F60008FEF811D811D089597F99F6780E870E0DC
:100F700060E008959FEF80EC089500240A9416160F
:100F8000170618060906089500240A941216130677
:100F9000140605060895092E0394000C11F4882305
:100FA00052F0BB0F40F4BF2B11F460FF04C06F5F21
:100FB0007F4F8F4F9F4F089557FD9058440F551FF7
:100FC00059F05F3F71F04795880F97FB991F61F0CB
:100FD0009F3F79F087950895121613061406551F42
:100FE000F2CF4695F1DF08C0161617061806991FAE
:100FF000F1CF86957105610508940895E894BB27A3
:1010000066277727CB0197F908950E94900708F487
:101010008FEF08950E941D080C94CB070E94BD0716
:1010200038F00E94C40720F0952311F00C94B40707
:101030000C94BA0711240C94FF070E94DC0770F38C
:10104000959FC1F3950F50E0551F629FF001729F6D
:10105000BB27F00DB11D639FAA27F00DB11DAA1F7C
:10106000649F6627B00DA11D661F829F2227B00DC9
:10107000A11D621F739FB00DA11D621F839FA00D54
:10108000611D221F749F3327A00D611D231F849FA4
:10109000600D211D822F762F6A2F11249F575040FB
:1010A0009AF0F1F088234AF0EE0FFF1FBB1F661F76
:1010B000771F881F91505040A9F79E3F510580F03F
:1010C0000C94B4070C94FF075F3FE4F3983ED4F30D
:1010D000869577956795B795F795E7959F5FC1F7E3
:1010E000FE2B880F911D9695879597F908950E947C
:1010F0009007880B990B0895A1E21A2EAA1BBB1B1F
:10110000FD010DC0AA1FBB1FEE1FFF1FA217B307D3
:10111000E407F50720F0A21BB30BE40BF50B661FE9
:10112000771F881F991F1A9469F7609570958095AD
:1011300090959B01AC01BD01CF010895EE0FFF1FFB
:101140000590F491E02D099481E090E0F8940C94DE
:06115000A908F894FFCF8E
:101156000000000023018C00BB006A01EC00CA00FD
:10116600DE006E616E00696E66006F7666006D2F3A
:0611760073000D0A0000E9
:107E0000112484B714BE81FFF0D085E080938100F7
:107E100082E08093C00088E18093C10086E0809377
:107E2000C20080E18093C4008EE0C9D0259A86E02C
:107E300020E33CEF91E0309385002093840096BBD3
:107E4000B09BFECF1D9AA8958150A9F7CC24DD24C4
:107E500088248394B5E0AB2EA1E19A2EF3E0BF2EE7
:107E6000A2D0813461F49FD0082FAFD0023811F036
:107E7000013811F484E001C083E08DD089C08234E0
:107E800011F484E103C0853419F485E0A6D080C0E4
:107E9000853579F488D0E82EFF2485D0082F10E0AE
:107EA000102F00270E291F29000F111F8ED06801E7
:107EB0006FC0863521F484E090D080E0DECF843638
:107EC00009F040C070D06FD0082F6DD080E0C81688
:107ED00080E7D80618F4F601B7BEE895C0E0D1E017
:107EE00062D089930C17E1F7F0E0CF16F0E7DF06D8
:107EF00018F0F601B7BEE89568D007B600FCFDCFD4
:107F0000A601A0E0B1E02C9130E011968C91119780
:107F100090E0982F8827822B932B1296FA010C0160
:107F200087BEE89511244E5F5F4FF1E0A038BF0790
:107F300051F7F601A7BEE89507B600FCFDCF97BE46
:107F4000E89526C08437B1F42ED02DD0F82E2BD052
:107F50003CD0F601EF2C8F010F5F1F4F84911BD097
:107F6000EA94F801C1F70894C11CD11CFA94CF0C13
:107F7000D11C0EC0853739F428D08EE10CD085E9AC
:107F80000AD08FE07ACF813511F488E018D01DD067
:107F900080E101D065CF982F8091C00085FFFCCF94
:107FA0009093C60008958091C00087FFFCCF809118
:107FB000C00084FD01C0A8958091C6000895E0E648
:107FC000F0E098E1908380830895EDDF803219F02E
:107FD00088E0F5DFFFCF84E1DECF1F93182FE3DFCA
:107FE0001150E9F7F2DF1F91089580E0E8DFEE27F6
:047FF000FF270994CA
:027FFE00040479
:0400000300007E007B
:00000001FF
