:100000000C9463000C948B000C948B000C94890569
:100010000C9489050C9489050C948B000C948B002E
:100020000C948B000C948B000C948B000C948B0024
:100030000C948B000C948B000C948B000C948B0014
:100040000C943F050C948B000C940D050C94E70464
:100050000C948B000C948B000C948B000C948B00F4
:100060000C948B000C948B000000000024002700EF
:100070002A0000000008000201000003040700003D
:1000800000000000000000000000250028002B00F8
:1000900000000000230026002900040404040404D6
:1000A0000404020202020202030303030303010227
:1000B00004081020408001020408102001020408F6
:1000C00010200306A30A11241FBECFEFD8E0DEBF25
:1000D000CDBF11E0A0E0B1E0EAECFDE102C0059087
:1000E0000D92AE34B107D9F723E0AEE4B1E001C020
:1000F0001D92AB34B207E1F710E0C2E6D0E004C0D5
:100100002197FE010E94A00DC136D107C9F70E94B8
:10011000D9060C94D80E0C940000E091D301F09114
:10012000D4010190F081E02D682F83ED91E00994D6
:10013000CF92DF92EF92FF920F931F93CF93DF93B3
:100140006C017A018B01C0E0D0E0CE15DF0589F0AB
:10015000D8016D918D01D601ED91FC910190F08156
:10016000E02DC6010995892B11F47E0102C021966C
:10017000ECCFC701DF91CF911F910F91FF90EF90CE
:10018000DF90CF900895FC01538D448D252F30E0F2
:10019000842F90E0821B930B541710F0CF96089594
:1001A00001970895FC01918D828D981761F0828DE1
:1001B000DF01A80FB11D5D968C91928D9F5F9F739B
:1001C000928F90E008958FEF9FEF0895FC01918D3D
:1001D000828D981731F0828DE80FF11D858D90E0AA
:1001E00008958FEF9FEF0895FC01918D228D892F47
:1001F00090E0805C9F4F821B91098F73992708952F
:1002000083ED91E00E94F40021E0892B09F420E0C5
:10021000822F0895FC01848DDF01A80FB11DA35A20
:10022000BF4F2C91848D90E001968F739927848F16
:10023000A689B7892C93A089B1898C9180648C930D
:10024000938D848D981306C00288F389E02D8081F8
:100250008F7D80830895EF92FF920F931F93CF932A
:10026000DF93EC0181E0888F9B8D8C8D981305C006
:10027000E889F989808185FD24C0F62E0B8D10E078
:100280000F5F1F4F0F731127E02E8C8DE8120CC0EB
:100290000FB607FCFACFE889F989808185FFF5CF91
:1002A000CE010E940A01F1CF8B8DFE01E80FF11DF6
:1002B000E35AFF4FF0820B8FEA89FB8980818062CD
:1002C00007C0EE89FF896083E889F98980818064AD
:1002D000808381E090E0DF91CF911F910F91FF909B
:1002E000EF900895CF93DF93EC01888D8823C9F0B8
:1002F000EA89FB89808185FD05C0A889B9898C912F
:1003000086FD0FC00FB607FCF5CF808185FFF2CFC9
:10031000A889B9898C9185FFEDCFCE010E940A0191
:10032000E7CFDF91CF91089580E090E0892B29F00D
:100330000E94000181110C9400000895833081F027
:1003400028F4813099F08230A1F008958730A9F027
:100350008830B9F08430D1F4809180008F7D03C063
:10036000809180008F7780938000089584B58F7787
:1003700002C084B58F7D84BD08958091B0008F77D1
:1003800003C08091B0008F7D8093B00008951F93CB
:10039000CF93DF93282F30E0F901EE58FF4F84917F
:1003A000F901E255FF4FD491F901E656FF4FC49190
:1003B000CC23C9F0162F81110E949E01EC2FF0E092
:1003C000EE0FFF1FEA57FF4FA591B4918FB7F89436
:1003D000111105C09C91ED2FE095E92302C0EC912D
:1003E000ED2BEC938FBFDF91CF911F910895CF93A9
:1003F000DF9390E0FC01E255FF4F2491FC01E656AB
:10040000FF4F8491882361F190E0880F991FFC01D0
:10041000E859FF4FC591D491FC01EA57FF4FA591D0
:10042000B491611109C09FB7F89488812095822307
:100430008883EC912E230BC0623061F49FB7F8944F
:100440003881822F809583238883EC912E2B2C93E7
:100450009FBF06C08FB7F894E8812E2B28838FBFEB
:10046000DF91CF9108951F93CF93DF93182FEB0166
:1004700061E00E94F701209711F460E004C0CF3FD3
:10048000D10539F461E0812FDF91CF911F910C9458
:10049000C701E12FF0E0EE58FF4FE491E330F9F0AF
:1004A00048F4E130B9F0E230A1F584B5806284BD52
:1004B000C8BD34C0E730E9F0E83019F1E43049F55F
:1004C00080918000806280938000D0938B00C093E5
:1004D0008A0024C084B5806884BDC7BD1FC08091D8
:1004E0008000806880938000D0938900C09388004A
:1004F00015C08091B00080688093B000C093B300B5
:100500000DC08091B00080628093B000C093B400B1
:1005100005C0C038D1050CF0B5CFAFCFDF91CF917A
:100520001F9108953FB7F8948091930190919401A1
:10053000A0919501B091960126B5A89B05C02F3FCB
:1005400019F00196A11DB11D3FBFBA2FA92F982FF9
:100550008827820F911DA11DB11DBC01CD0142E074
:10056000660F771F881F991F4A95D1F7089520912C
:100570009001309191012817390771F490918F0102
:1005800080918E01981741F0E0918F01F0E0E25BDD
:10059000FE4F808190E008958FEF9FEF08950895BA
:1005A0001F93CF93DF93DC015C962D913C915D9777
:1005B0002115310539F481E090E013969C938E93D8
:1005C00012973DC05196ED91FC91529750969C9197
:1005D0005097892F80951FB75E964C915E9741FB8F
:1005E000772770F941FD6095F8944081772311F0E9
:1005F000492B01C048234083E9012197F1F748E0E6
:10060000508160FF02C0592B01C058235083E9017B
:100610002197F1F76695415099F7772321F0908162
:100620008923808303C08081982B90831FBF5C96B1
:100630008D919C915D970197F1F721E030E0C90120
:10064000DF91CF911F9108952091900130919101F8
:100650002817390771F480918E0120918F0190E065
:10066000805C9F4F821B910960E470E00E94780DCE
:10067000089580E090E008952091900130919101DB
:1006800028173907B9F490918F0180918E0198173E
:1006900089F0E0918F01F0E0E25BFE4F80812091D4
:1006A0008F0130E02F5F3F4F2F73332720938F014F
:1006B00090E008958FEF9FEF0895089580E090E017
:1006C0000895009769F0FC0101900020E9F7319747
:1006D000AF01481B590BBC0183ED91E00C949800CD
:1006E00080E090E008958F929F92AF92BF920F9317
:1006F0001F93CF93DF93CDB7DEB7A1970FB6F894D2
:10070000DEBF0FBECDBF19A2423008F44AE08E0111
:100710000F5D1F4F842E912CA12CB12CA5019401AB
:100720000E94040BE62FB901CA0101501109EA30F9
:1007300014F4E05D01C0E95CD801EC93232B242B79
:10074000252B61F7C8010E946103A1960FB6F894AA
:10075000DEBF0FBECDBFDF91CF911F910F91BF9034
:10076000AF909F908F900895CF92DF92EF92FF927B
:10077000CF93DF936C01990FEE08FF08F7FE17C0C7
:100780008DE20E948D00EC0166277727CB016C1962
:100790007D098E099F094AE00E9473038C0F9D1FFB
:1007A000DF91CF91FF90EF90DF90CF9008954AE0D6
:1007B000C701B601DF91CF91FF90EF90DF90CF900E
:1007C0000C9473034F925F926F927F928F929F92DD
:1007D000AF92BF92CF92DF92EF92FF926B017C01BA
:1007E000B42E9B01AC010E94730D882319F08CE399
:1007F00091E027C026013701E89477F82FEF3FEF0B
:100800004FE75FE7C301B2010E94730D81110DC074
:100810002FEF3FEF4FE75FE7C301B2010E94A20B4A
:1008200018161CF480E491E00CC02FEF3FEF4FE767
:100830005FE4C701B6010E94010D181684F484E438
:1008400091E0FF90EF90DF90CF90BF90AF909F909E
:100850008F907F906F905F904F900C9461032FEF7B
:100860003FEF4FE75FECC701B6010E94A20B87FD87
:10087000E6CF20E030E0A901C701B6010E94A20B3B
:1008800087FF09C08DE20E948D004C01F7FAF094B9
:10089000F7F8F09402C0812C912CA12C60E070E05C
:1008A00080E09FE3AB1441F020E030E040E251E40F
:1008B0000E94A70BA394F6CF9B01AC01C701B60120
:1008C0000E94360B2B013C010E94200C6B017C0125
:1008D0000E944F0C9B01AC01C301B2010E94350B79
:1008E0002B013C014AE0C701B6010E9473037C0161
:1008F000E80CF91CBB2029F08EE20E948D00E80E66
:10090000F91EDB2CDD2021F120E030E040E251E453
:10091000C301B2010E94060D2B013C010E94200C74
:100920004B01A12CB12C4AE0C501B4010E94730314
:10093000E80EF91EC501B4010E944F0C9B01AC01E9
:10094000C301B2010E94350B2B013C01DA94DACFCE
:10095000C701FF90EF90DF90CF90BF90AF909F9036
:100960008F907F906F905F904F9008950E94D30E6C
:10097000CF93DF93EC01688324E0629FC0011124D0
:100980000E94A60D98878F83009709F41882198218
:100990001A821B821C821D821E8240E050E060ECA5
:1009A0007FE749875A876B877C874D875E876F878C
:1009B000788B2881FC0180E0821731F0119211922E
:1009C000119211928F5FF8CFDF91CF9108951F920E
:1009D0000F920FB60F9211242F933F934F935F9373
:1009E0006F937F938F939F93AF93BF93EF93FF93F7
:1009F00083ED91E00E940A01FF91EF91BF91AF91C9
:100A00009F918F917F916F915F914F913F912F9126
:100A10000F900FBE0F901F9018951F920F920FB658
:100A20000F9211242F938F939F93EF93FF93E09155
:100A3000E301F091E4018081E091E901F091EA01A4
:100A400082FD12C090818091EC018F5F8F732091A5
:100A5000ED01821751F0E091EC01F0E0ED52FE4F14
:100A6000958F8093EC0101C08081FF91EF919F9160
:100A70008F912F910F900FBE0F901F9018951F927E
:100A80000F920FB60F9211242F933F938F939F9342
:100A9000AF93BF938091970190919801A091990194
:100AA000B0919A013091920123E0230F2D3720F469
:100AB0000196A11DB11D05C026E8230F0296A11DB8
:100AC000B11D209392018093970190939801A09378
:100AD0009901B0939A018091930190919401A09112
:100AE0009501B09196010196A11DB11D80939301CE
:100AF00090939401A0939501B0939601BF91AF910B
:100B00009F918F913F912F910F900FBE0F901F904B
:100B100018951F920F920FB60F9211242F933F93A7
:100B20004F935F936F937F938F939F93AF93BF93F5
:100B3000EF93FF93E0919001F0919101309709F4C8
:100B400051C0968DA685B785858591FF04C09C917F
:100B5000892329F447C09C91892309F043C0A389C4
:100B6000B4899C918589809589238C9386899789FE
:100B70000197F1F7608D718DA685B785558538E0B1
:100B800020E0CB010197F1F7822F90E095958795B2
:100B9000282F4C91452309F02068315091F7868D1C
:100BA00081FD209580918E0190E001968F739927A9
:100BB00030918F01381749F0A0918E01B0E0A25B0F
:100BC000BE4F2C9380938E0103C0868D8160868FEB
:100BD000828D938D0197F1F7A389B4899C918589C2
:100BE000892B8C93FF91EF91BF91AF919F918F9142
:100BF0007F916F915F914F913F912F910F900FBE19
:100C00000F901F9018951092D6011092D50188EE82
:100C100093E0A0E0B0E08093D7019093D801A09337
:100C2000D901B093DA018CE191E09093D4018093E3
:100C3000D30185EC90E09093E0018093DF0184EC98
:100C400090E09093E2018093E10180EC90E090933A
:100C5000E4018093E30181EC90E09093E6018093BE
:100C6000E50182EC90E09093E8018093E70186EC47
:100C700090E09093EA018093E9011092EC011092C8
:100C8000ED011092EE011092EF0168EC86E393E023
:100C90000E94B80483E18093D4021092D50210928E
:100CA000D6021092D302E3E2F3E080E081938F5FFB
:100CB0008331E1F768E28FE892E00E94B80468E2CD
:100CC00080EA92E00E94B80468E281EB92E00E9420
:100CD000B80468E282EC92E00E94B80410927302B9
:100CE0001092720288EE93E0A0E0B0E0809374026C
:100CF00090937502A0937602B09377028EE291E012
:100D00009093710280937002109287021092860273
:100D1000109289021092880210928B0210928A021D
:100D200010928D0210928C0260918E026E7F6D7F08
:100D300060938E026695617081E068270E94C7010A
:100D400061E081E00E94F701EFEAF0E0E491E093D6
:100D50008002EBE9F0E0E491F0E0EE0FFF1FEA57CC
:100D6000FF4F85919491909382028093810260E07D
:100D700080E00E94F70180918E0281FD04C061E055
:100D800080E00E94C70110927C02EEEAF0E0E4915C
:100D9000E0937D02EAE9F0E0E491F0E0EE0FFF1F5E
:100DA000E057FF4F8591949190937F0280937E024C
:100DB0000895CF93DF9300D000D000D0CDB7DEB739
:100DC000789484B5826084BD84B5816084BD85B526
:100DD000826085BD85B5816085BD80916E00816032
:100DE00080936E00109281008091810082608093D8
:100DF00081008091810081608093810080918000DA
:100E00008160809380008091B10084608093B10004
:100E10008091B00081608093B00080917A008460FE
:100E200080937A0080917A00826080937A0080912A
:100E30007A00816080937A0080917A008068809344
:100E40007A001092C10008E011E061E0F8018081B1
:100E50000E94F70160E0F80182810E94F7010C5FB7
:100E60001F4FF1E008311F0781F761E088E00E9421
:100E7000F70161E08EE00E94F701E091E301F0915B
:100E8000E40182E08083E091DF01F091E0011082D3
:100E9000E091E101F091E2018FEC80831092EB018F
:100EA000E091E701F091E80186E08083E091E501BF
:100EB000F091E601808180618083E091E501F0910D
:100EC000E601808188608083E091E501F091E60190
:100ED000808180688083E091E501F091E601808166
:100EE0008F7D808380E480937C0080917A00806491
:100EF00080937A0080917A0086FDFCCF6091780023
:100F0000809179002091D60211E0120F1093D60241
:100F100044E0249F90011124F901E952FD4F7F0123
:100F200070E0782B072E000C880B990B0E94510C57
:100F3000F70160837183828393839091D4021917A0
:100F400010F01092D6028091D502891718F48F5FA5
:100F50008093D5021092D3021091D502112309F487
:100F600084C000E0E12EF12C6701F1E0CF1AD10836
:100F7000802F90E08C159D05CCF577247394442444
:100F800043945701A81AB90A272D30E02A153B05CA
:100F90005CF5A9014E5D5C4F4A01FA016080A90130
:100FA0004D5D5C4F1A01FA01508024E0629EF00111
:100FB0001124E952FD4F44E0549ED0011124A9525E
:100FC000BD4F2D913D914D915C91608171818281E8
:100FD00093810E94010D18162CF4F4015082F10146
:100FE0006082412C7394D0CF4420B9F081E080938B
:100FF000D302812F869510FF12C0E82FF0E0ED5D3F
:10100000FC4FE08124E0E29FF0011124E952FD4F02
:1010100060817181828193812CC00F5FA9CF90E0A4
:101020008D529D4FFC01E05BFF4FA08144E0A49FE7
:10103000D0011124A952BD4F3197E08154E0E59FC2
:10104000F0011124E952FD4F208131814281538109
:101050006D917D918D919C910E94360B20E030E046
:1010600040E05FE30E94060D04C060E070E080ECA9
:101070009FE70E94190C9B01AC01AFEFB0E00E940A
:10108000F90A25E030E040E050E00E94DA0A6CE323
:1010900070E0621B730B77FF02C060E070E0072E08
:1010A000000C880B990B0E94510C6B017C01009184
:1010B0003D0310913E030115110509F48BC0809189
:1010C0003803580164E0869FA00CB11C1124F5017F
:1010D00020813181428153816091390370913A03BB
:1010E00080913B0390913C030E94350B6093390340
:1010F00070933A0380933B0390933C03F501C082C5
:10110000D182E282F382B0903803F80124E0B29EEB
:10111000E00DF11D112420813181428153816091C4
:10112000390370913A0380913B0390913C030E94F4
:10113000360B6093390370933A0380933B0390938B
:101140003C03B394B0923803A0903603BA1002C0A7
:1011500010923803B0903703B11009C0C092430316
:10116000D0924403E0924503F09246030EC02091D2
:101170003F03309140034091410350914203C70126
:10118000B6010E94A20B87FF09C0C0923F03D09214
:101190004003E0924103F092420317C020914303C1
:1011A000309144034091450350914603C701B60175
:1011B0000E94010D18160CF0C2C1C0924303D092D8
:1011C0004403E0924503F0924603BA1418F4B39432
:1011D000B0923703B0903703BB2009F1A12CC12C8A
:1011E000D12C7601AB1471F0F8012191319141912C
:1011F00051918F01C701B6010E94360B6B017C0132
:10120000A394F0CF6A2D70E080E090E00E94510C32
:101210009B01AC01C701B6010E94A70B04C060E0AE
:1012200070E080EC9FE70E94190C709301016093BD
:1012300000010FEC11E02BE9822E21E0922E3FEB12
:10124000A32E31E0B32E45EBE42E41E0F42E57EA15
:10125000252E51E0352E48E051E05E834D83C12CB0
:10126000D12CED81FE81228133813327F901EE58A3
:10127000FF4F8491F901E255FF4F7490F901E65652
:10128000FF4F6490662009F405C181110E949E0100
:10129000E62DF0E0EE0FFF1FE057FF4FA591B49150
:1012A000EC917E2209F4F6C0F8018081882309F4CC
:1012B000C9C0C114D10469F0F70180819181181669
:1012C000190614F4019702C080E090E0F7019183C1
:1012D00080836091AB017091AC018091AD019091E0
:1012E000AE0142E00E94E20388E491E00E946103C3
:1012F0006091AF017091B0018091B1019091B20104
:1013000042E00E94E20388E491E00E946103609160
:10131000B3017091B4018091B5019091B60142E0A2
:101320000E94E20388E491E00E9461038091B7018A
:101330009091B8010E94B40388E491E00E94610397
:101340008091B9019091BA010E94B40388E491E0C0
:101350000E9461038091BB019091BC010E94B40383
:101360008CE491E00E9461038AE491E00E946103B1
:10137000C114D10409F45BC0F50160817181349717
:1013800080819181681B790B161617060CF04FC0EF
:10139000072E000C880B990B0E94510C9B01AC018D
:1013A00060E070E084EB92E40E94A70BF10160839F
:1013B00071838283938320E030E040E85FE30E9402
:1013C000010D181684F561E088E00E94C7010E94B3
:1013D00092029B01AC018AEF482E512C612C712C9A
:1013E00029833A834B835C830E94920229813A814C
:1013F0004B815C81DC01CB01821B930BA40BB50BF1
:10140000883E9340A105B10548F0F1E04F1A51081C
:101410006108710828513C4F4F4F5F4F41145104F0
:1014200061047104E9F660E088E00E94C701609100
:10143000000170910101ED81FE8180810E943302E3
:10144000F80110826091000170910101ED81FE812F
:1014500080810E943302FFEFCF1ADF0A4D815E8147
:101460004C5F5F4F5E834D830F5F1F4F54E0850ECF
:10147000911C64E0A60EB11C82E0E80EF11C94E021
:10148000290E311CE4E0CE16D10409F0EACE0E9408
:10149000940128CDF80180818111DDCF8091000178
:1014A0009091010118161906B4F62FB7F89480919F
:1014B000970190919801A0919901B0919A012FBF45
:1014C000F50180839183A283B3836FEF70E0ED8198
:1014D000FE8180810E9433022FB7F894809197019A
:1014E00090919801A0919901B0919A012FBFF401B8
:1014F0004081518162817381841B950BA60BB70BD0
:10150000893E9340A105B105B0F0F7018281938136
:101510000196938382832FB7F894809197019091DD
:101520009801A0919901B0919A012FBFF401808395
:101530009183A283B38321E0F80120838CCFBA1476
:1015400008F445CE4BCECF93DF938EE291E090939B
:101550007102809370028091900190919101805767
:10156000924071F4E0918302F09184029081809125
:1015700085028095892380831092910110929001B9
:10158000C3EDD2E061978F819885009711F00E949A
:101590003B0E82E0CF38D807A9F780913D039091A8
:1015A0003E03009721F0DF91CF910C943B0EDF9129
:1015B000CF910895052E97FB1EF400940E94F10A26
:1015C00057FD07D00E94040B07FC03D04EF40C9487
:1015D000F10A50954095309521953F4F4F4F5F4F01
:1015E000089590958095709561957F4F8F4F9F4F8F
:1015F00008950E94260BA59F900DB49F900DA49F67
:10160000800D911D11240895A1E21A2EAA1BBB1B67
:10161000FD010DC0AA1FBB1FEE1FFF1FA217B307BE
:10162000E407F50720F0A21BB30BE40BF50B661FD4
:10163000771F881F991F1A9469F760957095809598
:1016400090959B01AC01BD01CF010895A29FB0010F
:10165000B39FC001A39F700D811D1124911DB29FE6
:10166000700D811D1124911D08955058BB27AA2784
:101670000E944D0B0C94C70C0E94B90C38F00E94CC
:10168000C00C20F039F49F3F19F426F40C94B60CEA
:101690000EF4E095E7FB0C94B00CE92F0E94D80CF7
:1016A00058F3BA17620773078407950720F079F497
:1016B000A6F50C94FA0C0EF4E0950B2EBA2FA02D83
:1016C0000B01B90190010C01CA01A0011124FF27EF
:1016D000591B99F0593F50F4503E68F11A16F040EA
:1016E000A22F232F342F4427585FF3CF46953795E9
:1016F0002795A795F0405395C9F77EF41F16BA0BAE
:10170000620B730B840BBAF09150A1F0FF0FBB1F5B
:10171000661F771F881FC2F70EC0BA0F621F731FA4
:10172000841F48F4879577956795B795F7959E3F01
:1017300008F0B0CF9395880F08F09927EE0F979592
:10174000879508950E948C0C08F481E008950E940A
:10175000BB0B0C94C70C0E94C00C58F00E94B90C33
:1017600040F029F45F3F29F00C94B00C51110C9417
:10177000FB0C0C94B60C0E94D80C68F39923B1F3BF
:10178000552391F3951B550BBB27AA2762177307A7
:10179000840738F09F5F5F4F220F331F441FAA1F3B
:1017A000A9F335D00E2E3AF0E0E832D091505040F7
:1017B000E695001CCAF72BD0FE2F29D0660F771FA5
:1017C000881FBB1F261737074807AB07B0E809F08B
:1017D000BB0B802DBF01FF2793585F4F3AF09E3F10
:1017E000510578F00C94B00C0C94FB0C5F3FE4F3C3
:1017F000983ED4F3869577956795B795F7959F5F53
:10180000C9F7880F911D9695879597F90895E1E09E
:10181000660F771F881FBB1F621773078407BA07FD
:1018200020F0621B730B840BBA0BEE1F88F7E09558
:1018300008950E94200C6894B1110C94FB0C08953B
:101840000E94E00C88F09F5798F0B92F9927B75164
:10185000B0F0E1F0660F771F881F991F1AF0BA9554
:10186000C9F714C0B13091F00E94FA0CB1E00895AC
:101870000C94FA0C672F782F8827B85F39F0B93F9E
:10188000CCF3869577956795B395D9F73EF4909507
:101890008095709561957F4F8F4F9F4F0895E89485
:1018A00009C097FB3EF490958095709561957F4FA8
:1018B0008F4F9F4F9923A9F0F92F96E9BB27939556
:1018C000F695879577956795B795F111F8CFFAF466
:1018D000BB0F11F460FF1BC06F5F7F4F8F4F9F4F97
:1018E00016C0882311F096E911C0772321F09EE8F5
:1018F000872F762F05C0662371F096E8862F70E05B
:1019000060E02AF09A95660F771F881FDAF7880F34
:101910009695879597F90895990F0008550FAA0B8A
:10192000E0E8FEEF16161706E807F907C0F01216F2
:101930001306E407F50798F0621B730B840B950BF5
:1019400039F40A2661F0232B242B252B21F408954A
:101950000A2609F4A140A6958FEF811D811D0895E7
:1019600097F99F6780E870E060E008959FEF80EC52
:10197000089500240A9416161706180609060895F5
:1019800000240A9412161306140605060895092E5B
:101990000394000C11F4882352F0BB0F40F4BF2BCA
:1019A00011F460FF04C06F5F7F4F8F4F9F4F08950A
:1019B00057FD9058440F551F59F05F3F71F0479500
:1019C000880F97FB991F61F09F3F79F087950895E5
:1019D000121613061406551FF2CF4695F1DF08C004
:1019E000161617061806991FF1CF86957105610521
:1019F00008940895E894BB2766277727CB0197F9C9
:101A000008950E948C0C08F48FEF08950E94190D20
:101A10000C94C70C0E94B90C38F00E94C00C20F046
:101A2000952311F00C94B00C0C94B60C11240C946A
:101A3000FB0C0E94D80C70F3959FC1F3950F50E0FA
:101A4000551F629FF001729FBB27F00DB11D639F70
:101A5000AA27F00DB11DAA1F649F6627B00DA11D16
:101A6000661F829F2227B00DA11D621F739FB00DBC
:101A7000A11D621F839FA00D611D221F749F33272C
:101A8000A00D611D231F849F600D211D822F762FC5
:101A90006A2F11249F5750409AF0F1F088234AF0A2
:101AA000EE0FFF1FBB1F661F771F881F915050400E
:101AB000A9F79E3F510580F00C94B00C0C94FB0CE0
:101AC0005F3FE4F3983ED4F3869577956795B79595
:101AD000F795E7959F5FC1F7FE2B880F911D9695AF
:101AE000879597F908950E948C0C880B990B08959F
:101AF00097FB072E16F4009407D077FD09D00E94BB
:101B00008C0D07FC05D03EF4909581959F4F08956C
:101B1000709561957F4F0895AA1BBB1B51E107C0CB
:101B2000AA1FBB1FA617B70710F0A61BB70B881F6D
:101B3000991F5A95A9F780959095BC01CD010895FC
:101B4000EE0FFF1F0590F491E02D0994CF93DF93E2
:101B50008230910510F482E090E0E0914903F09129
:101B60004A0320E030E0C0E0D0E0309711F140813E
:101B7000518148175907C0F04817590761F482810D
:101B80009381209719F09B838A832BC090934A03FB
:101B90008093490326C02115310519F042175307D8
:101BA00018F49A01BE01DF01EF010280F381E02DFC
:101BB000DCCF2115310509F1281B390B2430310503
:101BC00090F412968D919C9113976115710521F0F7
:101BD000FB019383828304C090934A03809349035B
:101BE000FD01329644C0FD01E20FF31F81939193F2
:101BF000225031092D933C933AC0209147033091F4
:101C00004803232B41F420910401309105013093C6
:101C100048032093470320910201309103012115CD
:101C2000310541F42DB73EB74091060150910701AF
:101C3000241B350BE0914703F0914803E217F307AB
:101C4000A0F42E1B3F0B2817390778F0AC014E5F2C
:101C50005F4F2417350748F04E0F5F1F509348031E
:101C6000409347038193919302C0E0E0F0E0CF01FD
:101C7000DF91CF9108950F931F93CF93DF93009738
:101C800009F48CC0FC01329713821282009149033F
:101C900010914A030115110581F420813181820FD1
:101CA000931F20914703309148032817390779F58E
:101CB000F0934803E093470371C0D80140E050E03F
:101CC000AE17BF0750F412962D913C911397AD01BA
:101CD0002115310509F1D901F3CF9D01DA013383D3
:101CE000228360817181860F971F8217930769F4A1
:101CF000EC0128813981260F371F2E5F3F4F31833A
:101D000020838A819B8193838283452B29F4F093DE
:101D10004A03E093490342C01396FC93EE93129753
:101D2000ED01499159919E01240F351FE217F307E8
:101D300071F480819181840F951F029611969C9376
:101D40008E938281938113969C938E931297E0E0F9
:101D5000F0E0D80112968D919C911397009719F09D
:101D6000F8018C01F6CF8D919C9198012E5F3F4F29
:101D7000820F931F2091470330914803281739079A
:101D800069F4309729F410924A031092490302C073
:101D9000138212821093480300934703DF91CF917F
:101DA0001F910F91089581E090E0F8940C94D80E63
:101DB00010E0C2E6D0E004C0FE010E94A00D219612
:0A1DC000C336D107C9F7F894FFCF2E
:101DCA000A0000004B03800009000D0006000C0009
:101DDA0003000B0005000A00000000002B01980018
:101DEA00C3007201F400D200E60000000000D00235
:101DFA0098005E03CF0224033C03B7026E616E00B3
:0E1E0A00696E66006F7666002B000D0A000000
:00000001FF
